{
  "_format": "hh-sol-artifact-1",
  "contractName": "PlayerRegistry",
  "sourceName": "contracts/PlayerRegistry.sol",
  "abi": [
    {
      "inputs": [],
      "stateMutability": "nonpayable",
      "type": "constructor"
    },
    {
      "inputs": [],
      "name": "AccessControlBadConfirmation",
      "type": "error"
    },
    {
      "inputs": [
        {
          "internalType": "address",
          "name": "account",
          "type": "address"
        },
        {
          "internalType": "bytes32",
          "name": "neededRole",
          "type": "bytes32"
        }
      ],
      "name": "AccessControlUnauthorizedAccount",
      "type": "error"
    },
    {
      "inputs": [],
      "name": "ReentrancyGuardReentrantCall",
      "type": "error"
    },
    {
      "anonymous": false,
      "inputs": [
        {
          "indexed": true,
          "internalType": "address",
          "name": "player",
          "type": "address"
        },
        {
          "indexed": false,
          "internalType": "string",
          "name": "achievementName",
          "type": "string"
        },
        {
          "indexed": false,
          "internalType": "uint256",
          "name": "reward",
          "type": "uint256"
        }
      ],
      "name": "AchievementUnlocked",
      "type": "event"
    },
    {
      "anonymous": false,
      "inputs": [
        {
          "indexed": true,
          "internalType": "address",
          "name": "player",
          "type": "address"
        },
        {
          "indexed": false,
          "internalType": "uint8",
          "name": "newLevel",
          "type": "uint8"
        },
        {
          "indexed": false,
          "internalType": "uint256",
          "name": "experience",
          "type": "uint256"
        }
      ],
      "name": "LevelUp",
      "type": "event"
    },
    {
      "anonymous": false,
      "inputs": [
        {
          "indexed": true,
          "internalType": "address",
          "name": "player",
          "type": "address"
        },
        {
          "indexed": false,
          "internalType": "string",
          "name": "username",
          "type": "string"
        },
        {
          "indexed": false,
          "internalType": "uint64",
          "name": "registrationTime",
          "type": "uint64"
        }
      ],
      "name": "PlayerRegistered",
      "type": "event"
    },
    {
      "anonymous": false,
      "inputs": [
        {
          "indexed": true,
          "internalType": "bytes32",
          "name": "role",
          "type": "bytes32"
        },
        {
          "indexed": true,
          "internalType": "bytes32",
          "name": "previousAdminRole",
          "type": "bytes32"
        },
        {
          "indexed": true,
          "internalType": "bytes32",
          "name": "newAdminRole",
          "type": "bytes32"
        }
      ],
      "name": "RoleAdminChanged",
      "type": "event"
    },
    {
      "anonymous": false,
      "inputs": [
        {
          "indexed": true,
          "internalType": "bytes32",
          "name": "role",
          "type": "bytes32"
        },
        {
          "indexed": true,
          "internalType": "address",
          "name": "account",
          "type": "address"
        },
        {
          "indexed": true,
          "internalType": "address",
          "name": "sender",
          "type": "address"
        }
      ],
      "name": "RoleGranted",
      "type": "event"
    },
    {
      "anonymous": false,
      "inputs": [
        {
          "indexed": true,
          "internalType": "bytes32",
          "name": "role",
          "type": "bytes32"
        },
        {
          "indexed": true,
          "internalType": "address",
          "name": "account",
          "type": "address"
        },
        {
          "indexed": true,
          "internalType": "address",
          "name": "sender",
          "type": "address"
        }
      ],
      "name": "RoleRevoked",
      "type": "event"
    },
    {
      "anonymous": false,
      "inputs": [
        {
          "indexed": true,
          "internalType": "address",
          "name": "player",
          "type": "address"
        },
        {
          "indexed": false,
          "internalType": "uint32",
          "name": "totalGames",
          "type": "uint32"
        },
        {
          "indexed": false,
          "internalType": "uint32",
          "name": "gamesWon",
          "type": "uint32"
        },
        {
          "indexed": false,
          "internalType": "uint256",
          "name": "totalEarnings",
          "type": "uint256"
        }
      ],
      "name": "StatsUpdated",
      "type": "event"
    },
    {
      "inputs": [],
      "name": "DEFAULT_ADMIN_ROLE",
      "outputs": [
        {
          "internalType": "bytes32",
          "name": "",
          "type": "bytes32"
        }
      ],
      "stateMutability": "view",
      "type": "function"
    },
    {
      "inputs": [],
      "name": "GAME_ROLE",
      "outputs": [
        {
          "internalType": "bytes32",
          "name": "",
          "type": "bytes32"
        }
      ],
      "stateMutability": "view",
      "type": "function"
    },
    {
      "inputs": [
        {
          "internalType": "uint256",
          "name": "",
          "type": "uint256"
        }
      ],
      "name": "achievementList",
      "outputs": [
        {
          "internalType": "string",
          "name": "",
          "type": "string"
        }
      ],
      "stateMutability": "view",
      "type": "function"
    },
    {
      "inputs": [
        {
          "internalType": "string",
          "name": "",
          "type": "string"
        }
      ],
      "name": "achievements",
      "outputs": [
        {
          "internalType": "string",
          "name": "name",
          "type": "string"
        },
        {
          "internalType": "string",
          "name": "description",
          "type": "string"
        },
        {
          "internalType": "uint256",
          "name": "reward",
          "type": "uint256"
        },
        {
          "internalType": "bool",
          "name": "isActive",
          "type": "bool"
        }
      ],
      "stateMutability": "view",
      "type": "function"
    },
    {
      "inputs": [],
      "name": "getAllAchievements",
      "outputs": [
        {
          "internalType": "string[]",
          "name": "keys",
          "type": "string[]"
        },
        {
          "internalType": "string[]",
          "name": "names",
          "type": "string[]"
        },
        {
          "internalType": "string[]",
          "name": "descriptions",
          "type": "string[]"
        }
      ],
      "stateMutability": "view",
      "type": "function"
    },
    {
      "inputs": [
        {
          "internalType": "uint256",
          "name": "offset",
          "type": "uint256"
        },
        {
          "internalType": "uint256",
          "name": "limit",
          "type": "uint256"
        }
      ],
      "name": "getLeaderboardData",
      "outputs": [
        {
          "internalType": "address[]",
          "name": "playerAddresses",
          "type": "address[]"
        },
        {
          "internalType": "string[]",
          "name": "usernames",
          "type": "string[]"
        },
        {
          "internalType": "uint32[]",
          "name": "totalWins",
          "type": "uint32[]"
        },
        {
          "internalType": "uint256[]",
          "name": "totalEarnings",
          "type": "uint256[]"
        }
      ],
      "stateMutability": "view",
      "type": "function"
    },
    {
      "inputs": [
        {
          "internalType": "address",
          "name": "player",
          "type": "address"
        }
      ],
      "name": "getPlayerProfile",
      "outputs": [
        {
          "components": [
            {
              "internalType": "string",
              "name": "username",
              "type": "string"
            },
            {
              "internalType": "uint64",
              "name": "registrationTime",
              "type": "uint64"
            },
            {
              "internalType": "uint32",
              "name": "totalGames",
              "type": "uint32"
            },
            {
              "internalType": "uint32",
              "name": "gamesWon",
              "type": "uint32"
            },
            {
              "internalType": "uint32",
              "name": "gamesLost",
              "type": "uint32"
            },
            {
              "internalType": "uint32",
              "name": "currentWinStreak",
              "type": "uint32"
            },
            {
              "internalType": "uint32",
              "name": "bestWinStreak",
              "type": "uint32"
            },
            {
              "internalType": "uint256",
              "name": "totalEarnings",
              "type": "uint256"
            },
            {
              "internalType": "uint256",
              "name": "totalSpent",
              "type": "uint256"
            },
            {
              "internalType": "bool",
              "name": "isActive",
              "type": "bool"
            },
            {
              "internalType": "uint8",
              "name": "level",
              "type": "uint8"
            },
            {
              "internalType": "uint256",
              "name": "experience",
              "type": "uint256"
            }
          ],
          "internalType": "struct PlayerRegistry.PlayerProfile",
          "name": "",
          "type": "tuple"
        }
      ],
      "stateMutability": "view",
      "type": "function"
    },
    {
      "inputs": [
        {
          "internalType": "address",
          "name": "player",
          "type": "address"
        }
      ],
      "name": "getPlayerStats",
      "outputs": [
        {
          "internalType": "uint256",
          "name": "fastestWin",
          "type": "uint256"
        },
        {
          "internalType": "uint256",
          "name": "averageGameTime",
          "type": "uint256"
        },
        {
          "internalType": "uint32",
          "name": "rockPaperScissorsWins",
          "type": "uint32"
        },
        {
          "internalType": "uint32",
          "name": "tournamentWins",
          "type": "uint32"
        },
        {
          "internalType": "uint32",
          "name": "achievementsUnlocked",
          "type": "uint32"
        }
      ],
      "stateMutability": "view",
      "type": "function"
    },
    {
      "inputs": [
        {
          "internalType": "bytes32",
          "name": "role",
          "type": "bytes32"
        }
      ],
      "name": "getRoleAdmin",
      "outputs": [
        {
          "internalType": "bytes32",
          "name": "",
          "type": "bytes32"
        }
      ],
      "stateMutability": "view",
      "type": "function"
    },
    {
      "inputs": [
        {
          "internalType": "address",
          "name": "player",
          "type": "address"
        }
      ],
      "name": "getUsername",
      "outputs": [
        {
          "internalType": "string",
          "name": "",
          "type": "string"
        }
      ],
      "stateMutability": "view",
      "type": "function"
    },
    {
      "inputs": [
        {
          "internalType": "address",
          "name": "player",
          "type": "address"
        }
      ],
      "name": "getWinRate",
      "outputs": [
        {
          "internalType": "uint256",
          "name": "",
          "type": "uint256"
        }
      ],
      "stateMutability": "view",
      "type": "function"
    },
    {
      "inputs": [
        {
          "internalType": "bytes32",
          "name": "role",
          "type": "bytes32"
        },
        {
          "internalType": "address",
          "name": "account",
          "type": "address"
        }
      ],
      "name": "grantRole",
      "outputs": [],
      "stateMutability": "nonpayable",
      "type": "function"
    },
    {
      "inputs": [
        {
          "internalType": "address",
          "name": "player",
          "type": "address"
        },
        {
          "internalType": "string",
          "name": "achievementKey",
          "type": "string"
        }
      ],
      "name": "hasAchievement",
      "outputs": [
        {
          "internalType": "bool",
          "name": "",
          "type": "bool"
        }
      ],
      "stateMutability": "view",
      "type": "function"
    },
    {
      "inputs": [
        {
          "internalType": "bytes32",
          "name": "role",
          "type": "bytes32"
        },
        {
          "internalType": "address",
          "name": "account",
          "type": "address"
        }
      ],
      "name": "hasRole",
      "outputs": [
        {
          "internalType": "bool",
          "name": "",
          "type": "bool"
        }
      ],
      "stateMutability": "view",
      "type": "function"
    },
    {
      "inputs": [
        {
          "internalType": "address",
          "name": "",
          "type": "address"
        }
      ],
      "name": "isRegistered",
      "outputs": [
        {
          "internalType": "bool",
          "name": "",
          "type": "bool"
        }
      ],
      "stateMutability": "view",
      "type": "function"
    },
    {
      "inputs": [
        {
          "internalType": "address",
          "name": "",
          "type": "address"
        }
      ],
      "name": "players",
      "outputs": [
        {
          "internalType": "string",
          "name": "username",
          "type": "string"
        },
        {
          "internalType": "uint64",
          "name": "registrationTime",
          "type": "uint64"
        },
        {
          "internalType": "uint32",
          "name": "totalGames",
          "type": "uint32"
        },
        {
          "internalType": "uint32",
          "name": "gamesWon",
          "type": "uint32"
        },
        {
          "internalType": "uint32",
          "name": "gamesLost",
          "type": "uint32"
        },
        {
          "internalType": "uint32",
          "name": "currentWinStreak",
          "type": "uint32"
        },
        {
          "internalType": "uint32",
          "name": "bestWinStreak",
          "type": "uint32"
        },
        {
          "internalType": "uint256",
          "name": "totalEarnings",
          "type": "uint256"
        },
        {
          "internalType": "uint256",
          "name": "totalSpent",
          "type": "uint256"
        },
        {
          "internalType": "bool",
          "name": "isActive",
          "type": "bool"
        },
        {
          "internalType": "uint8",
          "name": "level",
          "type": "uint8"
        },
        {
          "internalType": "uint256",
          "name": "experience",
          "type": "uint256"
        }
      ],
      "stateMutability": "view",
      "type": "function"
    },
    {
      "inputs": [
        {
          "internalType": "string",
          "name": "username",
          "type": "string"
        }
      ],
      "name": "registerPlayer",
      "outputs": [],
      "stateMutability": "nonpayable",
      "type": "function"
    },
    {
      "inputs": [
        {
          "internalType": "uint256",
          "name": "",
          "type": "uint256"
        }
      ],
      "name": "registeredPlayers",
      "outputs": [
        {
          "internalType": "address",
          "name": "",
          "type": "address"
        }
      ],
      "stateMutability": "view",
      "type": "function"
    },
    {
      "inputs": [
        {
          "internalType": "bytes32",
          "name": "role",
          "type": "bytes32"
        },
        {
          "internalType": "address",
          "name": "callerConfirmation",
          "type": "address"
        }
      ],
      "name": "renounceRole",
      "outputs": [],
      "stateMutability": "nonpayable",
      "type": "function"
    },
    {
      "inputs": [
        {
          "internalType": "bytes32",
          "name": "role",
          "type": "bytes32"
        },
        {
          "internalType": "address",
          "name": "account",
          "type": "address"
        }
      ],
      "name": "revokeRole",
      "outputs": [],
      "stateMutability": "nonpayable",
      "type": "function"
    },
    {
      "inputs": [
        {
          "internalType": "bytes4",
          "name": "interfaceId",
          "type": "bytes4"
        }
      ],
      "name": "supportsInterface",
      "outputs": [
        {
          "internalType": "bool",
          "name": "",
          "type": "bool"
        }
      ],
      "stateMutability": "view",
      "type": "function"
    },
    {
      "inputs": [],
      "name": "totalPlayers",
      "outputs": [
        {
          "internalType": "uint256",
          "name": "",
          "type": "uint256"
        }
      ],
      "stateMutability": "view",
      "type": "function"
    },
    {
      "inputs": [
        {
          "internalType": "address",
          "name": "player",
          "type": "address"
        },
        {
          "internalType": "bool",
          "name": "won",
          "type": "bool"
        },
        {
          "internalType": "uint256",
          "name": "earnings",
          "type": "uint256"
        },
        {
          "internalType": "uint256",
          "name": "spent",
          "type": "uint256"
        },
        {
          "internalType": "uint256",
          "name": "gameTime",
          "type": "uint256"
        }
      ],
      "name": "updateGameStats",
      "outputs": [],
      "stateMutability": "nonpayable",
      "type": "function"
    },
    {
      "inputs": [
        {
          "internalType": "address",
          "name": "player",
          "type": "address"
        },
        {
          "internalType": "string",
          "name": "gameType",
          "type": "string"
        }
      ],
      "name": "updateSpecificGameStats",
      "outputs": [],
      "stateMutability": "nonpayable",
      "type": "function"
    },
    {
      "inputs": [
        {
          "internalType": "address",
          "name": "player",
          "type": "address"
        }
      ],
      "name": "updateTournamentWin",
      "outputs": [],
      "stateMutability": "nonpayable",
      "type": "function"
    }
  ],
  "bytecode": "0x608060405234610da3576001805561001633610da8565b5061002033610e24565b5061002b6040610edb565b60128152713334b939ba2fb932b3b4b9ba3930ba34b7b760711b60208201526100546040610edb565b600881526757656c636f6d652160c01b60208201526100736040610edb565b601b81527f526567697374657220796f7572206669727374206163636f756e74000000000060208201526100a5610ebc565b9182526020820190815260408201662386f26fc100008152606083019160018352604051855160005b818110610d9057506101229594926100fc836020816101069560039997016006815203019020965187610f00565b5160018601610f00565b51600284015551151591019060ff801983541691151516179055565b6007549068010000000000000000821015610ce2576001820180600755821015610ccc576007600052610164916000805160206136d883398151915201610f00565b61016e6040610edb565b600a81526966697273745f67616d6560b01b602082015261018f6040610edb565b600b81526a466972737420537465707360a81b60208201526101b16040610edb565b601481527f506c617920796f75722066697273742067616d6500000000000000000000000060208201526101e3610ebc565b91825260208201908152604082016611c37937e080008152606083019160018352604051855160005b818110610d7d575061023a9594926100fc836020816101069560039997016006815203019020965187610f00565b6007549068010000000000000000821015610ce2576001820180600755821015610ccc57600760005261027c916000805160206136d883398151915201610f00565b6102866040610edb565b600d81526c66697273745f766963746f727960981b60208201526102aa6040610edb565b601081526f5461737465206f6620566963746f727960801b60208201526102d16040610edb565b601381527f57696e20796f75722066697273742067616d65000000000000000000000000006020820152610303610ebc565b918252602082019081526040820166470de4df8200008152606083019160018352604051855160005b818110610d6a575061035a9594926100fc836020816101069560039997016006815203019020965187610f00565b6007549068010000000000000000821015610ce2576001820180600755821015610ccc57600760005261039c916000805160206136d883398151915201610f00565b6104146103a96040610edb565b600e81526d3b32ba32b930b72fb83630bcb2b960911b60208201526103ce6040610edb565b600f81526e47657474696e6720536572696f757360881b60208201526103f46040610edb565b91600d83526c506c61792031302067616d657360981b602084015261103a565b61041e6040610edb565b600c81526b31b2b73a3ab93cafb1b63ab160a11b60208201526104416040610edb565b600a8152692232b234b1b0ba34b7b760b11b60208201526104626040610edb565b600e81526d506c6179203130302067616d657360901b6020820152610485610ebc565b91825260208201908152604082016702c68af0bb1400008152606083019160018352604051855160005b818110610d5757506104dd9594926100fc836020816101069560039997016006815203019020965187610f00565b6007549068010000000000000000821015610ce2576001820180600755821015610ccc57600760005261051f916000805160206136d883398151915201610f00565b61059061052c6040610edb565b600e81526d77696e6e696e675f73747265616b60901b60208201526105516040610edb565b600981526813db881848149bdb1b60ba1b60208201526105716040610edb565b91600c83526b57696e2031302067616d657360a01b60208401526110f6565b61059a6040610edb565b600881526731b430b6b834b7b760c11b60208201526105b96040610edb565b600d81526c2a393ab29021b430b6b834b7b760991b60208201526105dd6040610edb565b600c81526b57696e2035302067616d657360a01b60208201526105fe610ebc565b91825260208201908152604082016706f05b59d3b200008152606083019160018352604051855160005b818110610d4457506106569594926100fc836020816101069560039997016006815203019020965187610f00565b6007549068010000000000000000821015610ce2576001820180600755821015610ccc576007600052610698916000805160206136d883398151915201610f00565b6106a26040610edb565b600d81526c39ba3932b0b5afb6b0b9ba32b960991b60208201526106c66040610edb565b600d81526c29ba3932b0b59026b0b9ba32b960991b60208201526106ea6040610edb565b601b81527f41636869657665206120352d67616d652077696e2073747265616b0000000000602082015261071c610ebc565b918252602082019081526040820167011c37937e0800008152606083019160018352604051855160005b818110610d3157506107749594926100fc836020816101069560039997016006815203019020965187610f00565b6007549068010000000000000000821015610ce2576001820180600755821015610ccc5760076000526107b6916000805160206136d883398151915201610f00565b6107c06040610edb565b600b81526a756e73746f707061626c6560a81b60208201526107e26040610edb565b6011815270556e73746f707061626c6520466f72636560781b602082015261080a6040610edb565b601c81527f4163686965766520612031302d67616d652077696e2073747265616b00000000602082015261083c610ebc565b91825260208201908152604082016703782dace9d900008152606083019160018352604051855160005b818110610d1e57506108949594926100fc836020816101069560039997016006815203019020965187610f00565b6007549068010000000000000000821015610ce2576001820180600755821015610ccc5760076000526108d6916000805160206136d883398151915201610f00565b61094a6108e36040610edb565b600b81526a3434b3b42fb2b0b93732b960a91b60208201526109056040610edb565b600b81526a26b7b732bc9026b0b5b2b960a91b60208201526109276040610edb565b91601083526f11585c9b880c48115512081d1bdd185b60821b60208401526110f6565b6109546040610edb565b60058152647768616c6560d81b60208201526109706040610edb565b600b81526a2434b3b4102937b63632b960a91b60208201526109926040610edb565b601181527011585c9b880c4c08115512081d1bdd185b607a1b60208201526109b8610ebc565b9182526020820190815260408201670de0b6b3a76400008152606083019160018352604051855160005b818110610d0b5750610a109594926100fc836020816101069560039997016006815203019020965187610f00565b6007549068010000000000000000821015610ce2576001820180600755821015610ccc576007600052610a52916000805160206136d883398151915201610f00565b610abf610a5f6040610edb565b60078152666c6576656c5f3560c81b6020820152610a7d6040610edb565b600b81526a2934b9b4b7339029ba30b960a91b6020820152610a9f6040610edb565b91600d83526c5265616368206c6576656c203560981b602084015261103a565b610b2f610acc6040610edb565b600881526706c6576656c5f31360c41b6020820152610aeb6040610edb565b600c81526b22b634ba3290283630bcb2b960a11b6020820152610b0e6040610edb565b91600e83526d05265616368206c6576656c2031360941b602084015261116f565b610b396040610edb565b600a815269393839afb6b0b9ba32b960b11b6020820152610b5a6040610edb565b601781527f526f636b2050617065722053636973736f72732050726f0000000000000000006020820152610b8e6040610edb565b600f81526e57696e2035205250532067616d657360881b6020820152610bb2610ebc565b9182526020820190815260408201666a94d74f4300008152606083019160018352604051855160005b818110610cf85750610c099594926100fc836020816101069560039997016006815203019020965187610f00565b6007549068010000000000000000821015610ce2576001820180600755821015610ccc576007600052610c4b916000805160206136d883398151915201610f00565b610cbd610c586040610edb565b600a8152691c9c1cd7db1959d95b9960b21b6020820152610c796040610edb565b600a815269149414c8131959d95b9960b21b6020820152610c9a6040610edb565b91601083526f57696e203230205250532067616d657360801b602084015261116f565b6040516124cf90816111e98239f35b634e487b7160e01b600052603260045260246000fd5b634e487b7160e01b600052604160045260246000fd5b80602080928a0101518185015201610bdb565b80602080928a01015181850152016109e2565b80602080928a0101518185015201610866565b80602080928a0101518185015201610746565b80602080928a0101518185015201610628565b80602080928a01015181850152016104af565b80602080928a010151818501520161032c565b80602080928a010151818501520161020c565b80602080928a01015181850152016100ce565b600080fd5b6001600160a01b0381166000908152600080516020613718833981519152602052604090205460ff16610e1e576001600160a01b0316600081815260008051602061371883398151915260205260408120805460ff191660011790553391906000805160206136b88339815191528180a4600190565b50600090565b6001600160a01b03811660009081526000805160206136f8833981519152602052604090205460ff16610e1e576001600160a01b031660008181526000805160206136f883398151915260205260408120805460ff191660011790553391907f6a64baf327d646d1bca72653e2a075d15fd6ac6d8cbd7f6ee03fc55875e0fa88906000805160206136b88339815191529080a4600190565b60405190608082016001600160401b03811183821017610ce257604052565b6040519190601f01601f191682016001600160401b03811183821017610ce257604052565b81519192916001600160401b038111610ce2578154600181811c91168015611030575b602082101461101a57601f8111610fd2575b506020601f8211600114610f705781929394600092610f65575b50508160011b916000199060031b1c1916179055565b015190503880610f4f565b601f1982169083600052806000209160005b818110610fba57509583600195969710610fa1575b505050811b019055565b015160001960f88460031b161c19169055388080610f97565b9192602060018192868b015181550194019201610f82565b826000526020600020601f830160051c81019160208410611010575b601f0160051c01905b8181106110045750610f35565b60008155600101610ff7565b9091508190610fee565b634e487b7160e01b600052602260045260246000fd5b90607f1690610f23565b90929192611046610ebc565b908152602081019384526040810166b1a2bc2ec50000815260608201906001825260405195845160005b8181106110e3575060039392916100fc896020816101069561109f9b9c9d016006815203019020965187610f00565b6007549068010000000000000000821015610ce2576001820180600755821015610ccc5760076000526110e1916000805160206136d883398151915201610f00565b565b806020809289010151818b015201611070565b90929192611102610ebc565b908152602081019384526040810167016345785d8a0000815260608201906001825260405195845160005b81811061115c575060039392916100fc896020816101069561109f9b9c9d016006815203019020965187610f00565b806020809289010151818b01520161112d565b9092919261117b610ebc565b9081526020810193845260408101670214e8348c4f0000815260608201906001825260405195845160005b8181106111d5575060039392916100fc896020816101069561109f9b9c9d016006815203019020965187610f00565b806020809289010151818b0152016111a656fe608080604052600436101561001357600080fd5b60003560e01c90816301ffc9a714611b235750806308ff599d14611a41578063248a9ca314611a1457806325ce4cb9146112e45780632ae560aa146112975780632f2ff15d1461125757806336568abe146112115780634bf0dfbd146111875780634fd66eae146111005780637725a9fb14610fc857806389a5b22914610f86578063914a1e7614610f5b57806391d1485414610f0e578063a217fddf14610ef2578063ab40070614610eb7578063b3446f851461094a578063b9a626ed14610900578063c3c5a547146108c1578063ce43c03214610855578063d49661c01461055c578063d50f898914610340578063d547741f146102f9578063e2eb41ff14610215578063e9537107146101555763f60cdcf61461013257600080fd5b34610150576000366003190112610150576020600954604051908152f35b600080fd5b34610150576020366003190112610150576004356001600160401b0381116101505736602382011215610150576101b1602061019e6101f6933690602481600401359101611e35565b8160405193828580945193849201611d94565b810160068152030190206101c481611cf0565b906101d160018201611cf0565b61020460ff600360028501549401541691604051958695608087526080870190611db7565b908582036020870152611db7565b916040840152151560608301520390f35b34610150576020366003190112610150576001600160a01b03610236611b76565b16600052600260205261028a604060002061025081611cf0565b9060018101549060ff6002820154916003810154600560048301549201549363ffffffff6040519889986101808a526101808a0190611db7565b966001600160401b03811660208a0152818160401c1660408a0152818160601c1660608a0152818160801c1660808a0152818160a01c1660a08a015260c01c1660c088015260e0870152610100860152818116151561012086015260081c166101408401526101608301520390f35b346101505760403660031901126101505761033e600435610318611b8c565b9061033961033482600052600060205260016040600020015490565b612103565b612344565b005b3461015057602036600319011261015057610359611b76565b60405161036581611c98565b60608152602081016000905260408101600090526060810160009052608081016000905260a081016000905260c081016000905260e08101600090526101008101600090526101208101600090526101408101600090526101600160009052600160a01b600190031680600052600560205260406000205460ff166103e990611ea1565b6000526002602052604060002060405161040281611c98565b61040b82611cf0565b815260018201549160208201906001600160401b038416825260408301938060401c63ffffffff16855260608401918160601c63ffffffff16835260808501918060801c63ffffffff16835260a08601908060a01c63ffffffff16825260c087019060c01c63ffffffff16815260028301549060e0880191825260038401549261010089019384526004850154956101208a019560ff8816151587526101408b019760081c60ff16885260050154976101608b019889526040519b8c9b60208d525160208d0161018090526101a08d016104e491611db7565b9a516001600160401b031660408d01525163ffffffff1660608c01525163ffffffff1660808b01525163ffffffff1660a08a01525163ffffffff1660c08901525163ffffffff1660e088015251610100870152516101208601525115156101408501525160ff16610160840152516101808301520390f35b346101505760403660031901126101505760043561057c60243582611efc565b9060095480831161084d575b508082039182116108375761059c82611f09565b906105aa6040519283611ccf565b8282526105b683611f09565b6020830190601f19013682376105cb84611f20565b936105d581611f09565b6105e26040519182611ccf565b8181526105ee82611f09565b602082019390601f190136853761060483611f09565b926106126040519485611ccf565b80845261061e81611f09565b602085019690601f190136883760005b82811061070d575050506040519687966080880190608089525180915260a08801929060005b8181106106eb5750505081610671918860209403848a0152611ddc565b918683036040880152519182815201929060005b8181106106cc575050506020908483036060860152519182815201919060005b8181106106b3575050500390f35b82518452859450602093840193909201916001016106a5565b825163ffffffff16855287965060209485019490920191600101610685565b82516001600160a01b031685528a995060209485019490920191600101610654565b8061072a610725600193859d9798999a9b9c9d611efc565b611c43565b838060a01b0391549060031b1c1680600052600260205263ffffffff8c6040600020926040519061075a82611c98565b61076385611cf0565b82526107f88688870154946001600160401b0386166020860152868660401c166040860152866060860196818160601c168852818160801c166080880152818160a01c1660a088015260c01c1660c0860152600560028901549860e08701998a52600381015461010088015260ff600482015481811615156101208a015260081c166101408801520154610160860152611f6a565b5251610804858a611f6a565b5261080f8489611f6a565b50511661081c838a611f6a565b5251610828828a611f6a565b5201989796959493929861062e565b634e487b7160e01b600052601160045260246000fd5b915082610588565b34610150576020366003190112610150576001600160a01b03610876611b76565b1680600052600560205261089160ff60406000205416611ea1565b60005260026020526108bd6108a96040600020611cf0565b604051918291602083526020830190611db7565b0390f35b34610150576020366003190112610150576001600160a01b036108e2611b76565b166000526005602052602060ff604060002054166040519015158152f35b3461015057602060ff8161091336611bcf565b929160018060a01b031660005260038252600360406000200183604051948593843782019081520301902054166040519015158152f35b34610150576020366003190112610150576004356001600160401b0381116101505761097a903690600401611ba2565b90600382101580610eac575b15610e675733600052600560205260ff60406000205416610e2d5760ff6040518383823760208185810160048152030190205416610df7576109c882826123c6565b15610db2576001600160401b034216906040516109e481611c98565b6109ef368584611e35565b815260208101908382526040810191600083526060820160008152608083016000815260a08401906000825260c085019260008452600060e0870152600061010087015260016101208701526001610140870152600061016087015233600052600260205260406000209686518051906001600160401b038211610cd9578190610a798b54611c5e565b601f8111610d5f575b50602090601f8311600114610cfa57600092610cef575b50508160011b916000199060031b1c19161788555b9451600188018054965163ffffffff60401b60409190911b166001600160401b039092166bffffffffffffffffffffffff199097169690961717855551845463ffffffff60601b191660609190911b63ffffffff60601b1617845551835463ffffffff60801b191660809190911b63ffffffff60801b1617835551825463ffffffff60a01b191660a09190911b63ffffffff60a01b1617825551815463ffffffff60c01b191660c09190911b63ffffffff60c01b1617905560e08101516002830155610100810151600383015560048201610120820151151560ff198254169060ff1617815561014082015160ff16610bb7919061ff0082549160081b169061ff001916179055565b61016001519060050155336000526005602052604060002060ff19815416600117905560405183828237808481016004815203602001902060ff19815416600117905560085468010000000000000000811015610cd957806001610c1e9201600855611c43565b81546001600160a01b0360039290921b91821b19163390911b1790556009549160001983146108375760017f753cf50da43afe9b536759c29fc9f0252ae071b1694e4104a7bfb0777cfbe98b9301600955836040519260408452816040850152606084013760006060858401015260208201526060813394601f80199101168101030190a261033e604051610cb4604082611ccf565b60128152713334b939ba2fb932b3b4b9ba3930ba34b7b760711b60208201523361213e565b634e487b7160e01b600052604160045260246000fd5b015190508d80610a99565b60008c81528281209350601f198516905b818110610d475750908460019594939210610d2e575b505050811b018855610aae565b015160001960f88460031b161c191690558d8080610d21565b92936020600181928786015181550195019301610d0b565b9091508a6000526020600020601f840160051c81019160208510610da8575b90601f859493920160051c01905b818110610d995750610a82565b60008155849350600101610d8c565b9091508190610d7e565b60405162461bcd60e51b815260206004820152601760248201527f496e76616c696420757365726e616d6520666f726d61740000000000000000006044820152606490fd5b60405162461bcd60e51b815260206004820152600e60248201526d2ab9b2b93730b6b2903a30b5b2b760911b6044820152606490fd5b60405162461bcd60e51b8152602060048201526012602482015271105b1c9958591e481c9959da5cdd195c995960721b6044820152606490fd5b60405162461bcd60e51b815260206004820152601760248201527f496e76616c696420757365726e616d65206c656e6774680000000000000000006044820152606490fd5b506014821115610986565b346101505760003660031901126101505760206040517f6a64baf327d646d1bca72653e2a075d15fd6ac6d8cbd7f6ee03fc55875e0fa888152f35b3461015057600036600319011261015057602060405160008152f35b3461015057604036600319011261015057610f27611b8c565b600435600052600060205260406000209060018060a01b0316600052602052602060ff604060002054166040519015158152f35b34610150576020366003190112610150576020610f7e610f79611b76565b611f7e565b604051908152f35b346101505760203660031901126101505760043560085481101561015057610faf602091611c43565b905460405160039290921b1c6001600160a01b03168152f35b3461015057600036600319011261015057600754610fe581611f20565b610fee82611f20565b610ff783611f20565b9260005b81811061103e57611022846108bd8761103087604051958695606087526060870190611ddc565b908582036020870152611ddc565b908382036040850152611ddc565b8061105361104d600193611c12565b50611cf0565b60405160208183516110688183858801611d94565b81016006815203019020906040519061108082611cb4565b61108983611cf0565b825260ff600361109a878601611cf0565b946020850195865260028101546040860152015416151560608301526110c08489611f6a565b526110cb8388611f6a565b50516110d78387611f6a565b526110e28286611f6a565b50516110ee8288611f6a565b526110f98187611f6a565b5001610ffb565b34610150576020366003190112610150576001600160a01b03611121611b76565b1680600052600560205261113c60ff60406000205416611ea1565b600052600360205260a0604060002063ffffffff815491600260018201549101549060405193845260208401528181166040840152818160201c16606084015260401c166080820152f35b34610150576020366003190112610150576111a0611b76565b6111a8612091565b6001600160a01b03166000818152600560205260409020546111cc9060ff16611ea1565b60005260036020526002604060002001805467ffffffff000000006111f963ffffffff8360201c16611ee5565b60201b169067ffffffff000000001916179055600080f35b346101505760403660031901126101505761122a611b8c565b336001600160a01b038216036112465761033e90600435612344565b63334bd91960e11b60005260046000fd5b346101505760403660031901126101505761033e600435611276611b8c565b9061129261033482600052600060205260016040600020015490565b6122c0565b3461015057602036600319011261015057600435600754811015610150576112be90611c12565b6112ce576108a96108bd91611cf0565b634e487b7160e01b600052600060045260246000fd5b346101505760a0366003190112610150576112fd611b76565b6024359081151582036101505760843590611316612091565b60018060a01b0381169283600052600560205261133a60ff60406000205416611ea1565b83600052600260205260406000209284600052600360205260406000206005600186019561139961137463ffffffff895460401c16611ee5565b88546bffffffff0000000000000000191660409190911b63ffffffff60401b16178855565b60028101946113ab6044358754611efc565b8655600382016113be6064358254611efc565b9055156119b8576113fb6113db63ffffffff895460601c16611ee5565b885463ffffffff60601b191660609190911b63ffffffff60601b16178855565b61143161141163ffffffff895460a01c16611ee5565b885463ffffffff60a01b191660a09190911b63ffffffff60a01b16178855565b01908154606481018091116108375760019255855463ffffffff808260a01c169160c01c168111611994575b508054801590811561198a575b50611982575b0190815463ffffffff865460401c1691600019830163ffffffff81116108375763ffffffff1691828102928184041490151715610837576114b091611efc565b811561196c570490558360005260026020526040600020926005840192600160ff6103e886540416019360ff8511610837578660609560047f875a98b805343d930adfe01ef283b14924f471e42b033ae7bdddd67692d7131a98019060ff825460081c169360ff82169485116118ab575b50505090506000526002602052601463ffffffff60028860406000208360405161154a81611c98565b61155383611cf0565b8152816001840154916001600160401b03831660208201526040810195828460401c1687528d820191838f86901c168352838560801c166080820152838560a01c1660a08201528360c082019560c01c16855261016060058a8901549860e08401998a52600381015461010085015260ff6004820154818116151561012087015260081c166101408501520154910152600052600360205281604060002096511660018114600014611834575061162e604051611611604082611ccf565b600a81526966697273745f67616d6560b01b60208201528b61213e565b5116600181036117c1575061166a60405161164a604082611ccf565b600d81526c66697273745f766963746f727960981b60208201528961213e565b51166005811061178657506116a6604051611686604082611ccf565b600d81526c39ba3932b0b5afb6b0b9ba32b960991b60208201528761213e565b51670de0b6b3a7640000811061174a57506116e66040516116c8604082611ccf565b600b81526a3434b3b42fb2b0b93732b960a91b60208201528661213e565b0154161015611715575b5054905463ffffffff60405192818160401c168452841c1660208301526040820152a2005b6117449060405190611728604083611ccf565b600a8252691c9c1cd7db1959d95b9960b21b602083015261213e565b856116f0565b678ac7230489e80000116116e657611781604051611769604082611ccf565b60058152647768616c6560d81b60208201528661213e565b6116e6565b600a116116a6576117bc60405161179e604082611ccf565b600b81526a756e73746f707061626c6560a81b60208201528761213e565b6116a6565b600a810361180157506117fc6040516117db604082611ccf565b600e81526d77696e6e696e675f73747265616b60901b60208201528961213e565b61166a565b60320361166a576117fc604051611819604082611ccf565b600881526731b430b6b834b7b760c11b60208201528961213e565b600a8103611874575061186f60405161184e604082611ccf565b600e81526d3b32ba32b930b72fb83630bcb2b960911b60208201528b61213e565b61162e565b60640361162e5761186f60405161188c604082611ccf565b600c81526b31b2b73a3ab93cafb1b63ab160a11b60208201528b61213e565b6118e96040927f2ca3c57c4517cd4f224f85fc4cb74ad719dfec5650f8dc7cf193c6d6207e8de9949061ff0082549160081b169061ff001916179055565b548151908582526020820152a260058103611934575061192a604051611910604082611ccf565b60078152666c6576656c5f3560c81b60208201528261213e565b8686818080611521565b600a0361192a5761196760405161194c604082611ccf565b600881526706c6576656c5f31360c41b60208201528261213e565b61192a565b634e487b7160e01b600052601260045260246000fd5b828155611470565b905083108861146a565b865463ffffffff60c01b191660c09190911b63ffffffff60c01b161786558761145d565b6119ee6119ce63ffffffff895460801c16611ee5565b885463ffffffff60801b191660809190911b63ffffffff60801b16178855565b63ffffffff60a01b19875416875501908154601981018091116108375760019255611470565b34610150576020366003190112610150576020610f7e600435600052600060205260016040600020015490565b3461015057611a96611a5236611bcf565b9290611a5c612091565b6001600160a01b038316600081815260056020526040902054611a819060ff16611ea1565b60005260036020526040600020933691611e35565b6020815191012090604091601360208451611ab18682611ccf565b8281520172726f636b5f70617065725f73636973736f727360681b81522014611ad657005b600261033e9301805463ffffffff611aef818316611ee5565b169063ffffffff1916179055611b0782519283611ccf565b600a825269393839afb6b0b9ba32b960b11b602083015261213e565b34610150576020366003190112610150576004359063ffffffff60e01b821680920361015057602091637965db0b60e01b8114908115611b65575b5015158152f35b6301ffc9a760e01b14905083611b5e565b600435906001600160a01b038216820361015057565b602435906001600160a01b038216820361015057565b9181601f84011215610150578235916001600160401b038311610150576020838186019501011161015057565b906040600319830112610150576004356001600160a01b03811681036101505791602435906001600160401b03821161015057611c0e91600401611ba2565b9091565b600754811015611c2d57600760005260206000200190600090565b634e487b7160e01b600052603260045260246000fd5b600854811015611c2d57600860005260206000200190600090565b90600182811c92168015611c8e575b6020831014611c7857565b634e487b7160e01b600052602260045260246000fd5b91607f1691611c6d565b61018081019081106001600160401b03821117610cd957604052565b608081019081106001600160401b03821117610cd957604052565b90601f801991011681019081106001600160401b03821117610cd957604052565b9060405191826000825492611d0484611c5e565b8084529360018116908115611d725750600114611d2b575b50611d2992500383611ccf565b565b90506000929192526020600020906000915b818310611d56575050906020611d299282010138611d1c565b6020919350806001915483858901015201910190918492611d3d565b905060209250611d2994915060ff191682840152151560051b82010138611d1c565b60005b838110611da75750506000910152565b8181015183820152602001611d97565b90602091611dd081518092818552858086019101611d94565b601f01601f1916010190565b9080602083519182815201916020808360051b8301019401926000915b838310611e0857505050505090565b9091929394602080611e26600193601f198682030187528951611db7565b97019301930191939290611df9565b9291926001600160401b038211610cd95760405191611e5e601f8201601f191660200184611ccf565b829481845281830111610150578281602093846000960137010152565b602090611e95928260405194838680955193849201611d94565b82019081520301902090565b15611ea857565b60405162461bcd60e51b8152602060048201526015602482015274141b185e595c881b9bdd081c9959da5cdd195c9959605a1b6044820152606490fd5b63ffffffff1663ffffffff81146108375760010190565b9190820180921161083757565b6001600160401b038111610cd95760051b60200190565b90611f2a82611f09565b611f376040519182611ccf565b8281528092611f48601f1991611f09565b019060005b828110611f5957505050565b806060602080938501015201611f4d565b8051821015611c2d5760209160051b010190565b6001600160a01b0316600081815260056020526040902054611fa29060ff16611ea1565b60005260026020526040600020604051611fbb81611c98565b611fc482611cf0565b81526001820154906001600160401b038216602082015263ffffffff8260401c16906101606005604083019584875263ffffffff808760601c1696876060870152818160801c166080870152818160a01c1660a087015260c01c1660c0850152600281015460e0850152600381015461010085015260ff6004820154818116151561012087015260081c1661014085015201549101521561208a57612710029063ffffffff8216918203610837575163ffffffff16801561196c5763ffffffff91041690565b5050600090565b3360009081527fe1df487393f70670fe2724ffe9626b2aef6de78fb0f864e70ee41781174331b8602052604090205460ff16156120ca57565b63e2517d3f60e01b600052336004527f6a64baf327d646d1bca72653e2a075d15fd6ac6d8cbd7f6ee03fc55875e0fa8860245260446000fd5b60008181526020818152604080832033845290915290205460ff16156121265750565b63e2517d3f60e01b6000523360045260245260446000fd5b60018060a01b031690816000526003602052604060002090600382019160ff6121678484611e7b565b54161580612294575b61217b575b50505050565b60208261019e60026121f3946121b57f67a8d47c6ecf3a491ea8a4f20a58352394879c573c678ec5b9abceae075d4dca9861225e98611e7b565b600160ff19825416179055016121d463ffffffff825460401c16611ee5565b63ffffffff60401b82549160401b169063ffffffff60401b1916179055565b8101600681520301902060405161220981611cb4565b61221282611cf0565b815261222060018301611cf0565b6020820152600282015460ff600360408401948386520154161515606083015280612270575b50519051604051928392604084526040840190611db7565b9060208301520390a238808080612175565b85600052600260205261228c6002604060002001918254611efc565b905538612246565b5060ff600360405160208186516122ae8183858b01611d94565b81016006815203019020015416612170565b6000818152602081815260408083206001600160a01b038616845290915290205460ff1661208a576000818152602081815260408083206001600160a01b0395909516808452949091528120805460ff19166001179055339291907f2f8788117e7eff1d82e926ec794901d17c78024a50270940304540a733656f0d9080a4600190565b6000818152602081815260408083206001600160a01b038616845290915290205460ff161561208a576000818152602081815260408083206001600160a01b0395909516808452949091528120805460ff19169055339291907ff6391f5c32d9c69d2a47ea670b442974b53935d1edc7fd64eb21e047a839171b9080a4600190565b6123d1913691611e35565b80519060005b8281101561249157818101602001516000906001600160f81b031916600360fc1b81101580612483575b15908161245e575b81612439575b8161242a575b5061242357506001016123d7565b9250505090565b605f60f81b1415905038612415565b9050606160f81b81101580612450575b159061240f565b50603d60f91b811115612449565b9050604160f81b81101580612475575b1590612409565b50602d60f91b81111561246e565b50603960f81b811115612401565b50505060019056fea264697066735822122013a9a98c043def038903a978fe4d9bcfccfa8384351f86086b52c5f0576f3f6c64736f6c634300081c00332f8788117e7eff1d82e926ec794901d17c78024a50270940304540a733656f0da66cc928b5edb82af9bd49922954155ab7b0942694bea4ce44661d9a8736c688e1df487393f70670fe2724ffe9626b2aef6de78fb0f864e70ee41781174331b8ad3228b676f7d3cd4284a5443f17f1962b36e491b30a40b2405849e597ba5fb5",
  "linkReferences": {},
  "deployedLinkReferences": {}
}