{
  "_format": "hh-sol-artifact-1",
  "contractName": "GameSession",
  "sourceName": "contracts/GameSession.sol",
  "abi": [
    {
      "inputs": [],
      "stateMutability": "nonpayable",
      "type": "constructor"
    },
    {
      "inputs": [],
      "name": "AccessControlBadConfirmation",
      "type": "error"
    },
    {
      "inputs": [
        {
          "internalType": "address",
          "name": "account",
          "type": "address"
        },
        {
          "internalType": "bytes32",
          "name": "neededRole",
          "type": "bytes32"
        }
      ],
      "name": "AccessControlUnauthorizedAccount",
      "type": "error"
    },
    {
      "inputs": [],
      "name": "ReentrancyGuardReentrantCall",
      "type": "error"
    },
    {
      "anonymous": false,
      "inputs": [
        {
          "indexed": true,
          "internalType": "uint128",
          "name": "sessionId",
          "type": "uint128"
        },
        {
          "indexed": true,
          "internalType": "address",
          "name": "player",
          "type": "address"
        },
        {
          "indexed": false,
          "internalType": "bytes32",
          "name": "moveHash",
          "type": "bytes32"
        },
        {
          "indexed": false,
          "internalType": "uint32",
          "name": "submittedAt",
          "type": "uint32"
        }
      ],
      "name": "MoveSubmitted",
      "type": "event"
    },
    {
      "anonymous": false,
      "inputs": [
        {
          "indexed": true,
          "internalType": "uint128",
          "name": "sessionId",
          "type": "uint128"
        },
        {
          "indexed": true,
          "internalType": "address",
          "name": "player",
          "type": "address"
        },
        {
          "indexed": false,
          "internalType": "uint32",
          "name": "playerCount",
          "type": "uint32"
        }
      ],
      "name": "PlayerJoined",
      "type": "event"
    },
    {
      "anonymous": false,
      "inputs": [
        {
          "indexed": true,
          "internalType": "uint128",
          "name": "sessionId",
          "type": "uint128"
        },
        {
          "indexed": true,
          "internalType": "address",
          "name": "player",
          "type": "address"
        },
        {
          "indexed": false,
          "internalType": "uint256",
          "name": "amount",
          "type": "uint256"
        }
      ],
      "name": "PrizeDistributed",
      "type": "event"
    },
    {
      "anonymous": false,
      "inputs": [
        {
          "indexed": true,
          "internalType": "bytes32",
          "name": "role",
          "type": "bytes32"
        },
        {
          "indexed": true,
          "internalType": "bytes32",
          "name": "previousAdminRole",
          "type": "bytes32"
        },
        {
          "indexed": true,
          "internalType": "bytes32",
          "name": "newAdminRole",
          "type": "bytes32"
        }
      ],
      "name": "RoleAdminChanged",
      "type": "event"
    },
    {
      "anonymous": false,
      "inputs": [
        {
          "indexed": true,
          "internalType": "bytes32",
          "name": "role",
          "type": "bytes32"
        },
        {
          "indexed": true,
          "internalType": "address",
          "name": "account",
          "type": "address"
        },
        {
          "indexed": true,
          "internalType": "address",
          "name": "sender",
          "type": "address"
        }
      ],
      "name": "RoleGranted",
      "type": "event"
    },
    {
      "anonymous": false,
      "inputs": [
        {
          "indexed": true,
          "internalType": "bytes32",
          "name": "role",
          "type": "bytes32"
        },
        {
          "indexed": true,
          "internalType": "address",
          "name": "account",
          "type": "address"
        },
        {
          "indexed": true,
          "internalType": "address",
          "name": "sender",
          "type": "address"
        }
      ],
      "name": "RoleRevoked",
      "type": "event"
    },
    {
      "anonymous": false,
      "inputs": [
        {
          "indexed": true,
          "internalType": "uint128",
          "name": "sessionId",
          "type": "uint128"
        },
        {
          "indexed": false,
          "internalType": "address[]",
          "name": "winners",
          "type": "address[]"
        },
        {
          "indexed": false,
          "internalType": "uint256[]",
          "name": "prizes",
          "type": "uint256[]"
        },
        {
          "indexed": false,
          "internalType": "uint64",
          "name": "completedAt",
          "type": "uint64"
        }
      ],
      "name": "SessionCompleted",
      "type": "event"
    },
    {
      "anonymous": false,
      "inputs": [
        {
          "indexed": true,
          "internalType": "uint128",
          "name": "sessionId",
          "type": "uint128"
        },
        {
          "indexed": true,
          "internalType": "address",
          "name": "creator",
          "type": "address"
        },
        {
          "indexed": false,
          "internalType": "uint32",
          "name": "maxPlayers",
          "type": "uint32"
        },
        {
          "indexed": false,
          "internalType": "uint256",
          "name": "entryFee",
          "type": "uint256"
        },
        {
          "indexed": false,
          "internalType": "uint32",
          "name": "moveTimeLimit",
          "type": "uint32"
        }
      ],
      "name": "SessionCreated",
      "type": "event"
    },
    {
      "anonymous": false,
      "inputs": [
        {
          "indexed": true,
          "internalType": "uint128",
          "name": "sessionId",
          "type": "uint128"
        },
        {
          "indexed": false,
          "internalType": "uint64",
          "name": "startedAt",
          "type": "uint64"
        }
      ],
      "name": "SessionStarted",
      "type": "event"
    },
    {
      "inputs": [],
      "name": "DEFAULT_ADMIN_ROLE",
      "outputs": [
        {
          "internalType": "bytes32",
          "name": "",
          "type": "bytes32"
        }
      ],
      "stateMutability": "view",
      "type": "function"
    },
    {
      "inputs": [],
      "name": "GAME_ROLE",
      "outputs": [
        {
          "internalType": "bytes32",
          "name": "",
          "type": "bytes32"
        }
      ],
      "stateMutability": "view",
      "type": "function"
    },
    {
      "inputs": [
        {
          "internalType": "uint32",
          "name": "maxPlayers",
          "type": "uint32"
        },
        {
          "internalType": "uint256",
          "name": "entryFee",
          "type": "uint256"
        },
        {
          "internalType": "uint32",
          "name": "moveTimeLimit",
          "type": "uint32"
        }
      ],
      "name": "createSession",
      "outputs": [
        {
          "internalType": "uint128",
          "name": "",
          "type": "uint128"
        }
      ],
      "stateMutability": "payable",
      "type": "function"
    },
    {
      "inputs": [
        {
          "internalType": "uint128",
          "name": "sessionId",
          "type": "uint128"
        }
      ],
      "name": "forceCompleteSession",
      "outputs": [],
      "stateMutability": "nonpayable",
      "type": "function"
    },
    {
      "inputs": [],
      "name": "getCurrentSessionId",
      "outputs": [
        {
          "internalType": "uint128",
          "name": "",
          "type": "uint128"
        }
      ],
      "stateMutability": "view",
      "type": "function"
    },
    {
      "inputs": [
        {
          "internalType": "uint128",
          "name": "sessionId",
          "type": "uint128"
        },
        {
          "internalType": "address",
          "name": "player",
          "type": "address"
        }
      ],
      "name": "getPlayerMove",
      "outputs": [
        {
          "internalType": "bytes32",
          "name": "",
          "type": "bytes32"
        }
      ],
      "stateMutability": "view",
      "type": "function"
    },
    {
      "inputs": [
        {
          "internalType": "bytes32",
          "name": "role",
          "type": "bytes32"
        }
      ],
      "name": "getRoleAdmin",
      "outputs": [
        {
          "internalType": "bytes32",
          "name": "",
          "type": "bytes32"
        }
      ],
      "stateMutability": "view",
      "type": "function"
    },
    {
      "inputs": [
        {
          "internalType": "uint128",
          "name": "sessionId",
          "type": "uint128"
        }
      ],
      "name": "getSessionPlayers",
      "outputs": [
        {
          "internalType": "address[]",
          "name": "",
          "type": "address[]"
        }
      ],
      "stateMutability": "view",
      "type": "function"
    },
    {
      "inputs": [
        {
          "internalType": "bytes32",
          "name": "role",
          "type": "bytes32"
        },
        {
          "internalType": "address",
          "name": "account",
          "type": "address"
        }
      ],
      "name": "grantRole",
      "outputs": [],
      "stateMutability": "nonpayable",
      "type": "function"
    },
    {
      "inputs": [
        {
          "internalType": "bytes32",
          "name": "role",
          "type": "bytes32"
        },
        {
          "internalType": "address",
          "name": "account",
          "type": "address"
        }
      ],
      "name": "hasRole",
      "outputs": [
        {
          "internalType": "bool",
          "name": "",
          "type": "bool"
        }
      ],
      "stateMutability": "view",
      "type": "function"
    },
    {
      "inputs": [
        {
          "internalType": "uint128",
          "name": "sessionId",
          "type": "uint128"
        }
      ],
      "name": "isSessionActive",
      "outputs": [
        {
          "internalType": "bool",
          "name": "",
          "type": "bool"
        }
      ],
      "stateMutability": "view",
      "type": "function"
    },
    {
      "inputs": [
        {
          "internalType": "uint128",
          "name": "sessionId",
          "type": "uint128"
        }
      ],
      "name": "joinSession",
      "outputs": [],
      "stateMutability": "payable",
      "type": "function"
    },
    {
      "inputs": [
        {
          "internalType": "address",
          "name": "",
          "type": "address"
        }
      ],
      "name": "playerBalances",
      "outputs": [
        {
          "internalType": "uint256",
          "name": "",
          "type": "uint256"
        }
      ],
      "stateMutability": "view",
      "type": "function"
    },
    {
      "inputs": [
        {
          "internalType": "bytes32",
          "name": "role",
          "type": "bytes32"
        },
        {
          "internalType": "address",
          "name": "callerConfirmation",
          "type": "address"
        }
      ],
      "name": "renounceRole",
      "outputs": [],
      "stateMutability": "nonpayable",
      "type": "function"
    },
    {
      "inputs": [
        {
          "internalType": "bytes32",
          "name": "role",
          "type": "bytes32"
        },
        {
          "internalType": "address",
          "name": "account",
          "type": "address"
        }
      ],
      "name": "revokeRole",
      "outputs": [],
      "stateMutability": "nonpayable",
      "type": "function"
    },
    {
      "inputs": [
        {
          "internalType": "uint128",
          "name": "",
          "type": "uint128"
        },
        {
          "internalType": "uint256",
          "name": "",
          "type": "uint256"
        }
      ],
      "name": "sessionPlayerList",
      "outputs": [
        {
          "internalType": "address",
          "name": "",
          "type": "address"
        }
      ],
      "stateMutability": "view",
      "type": "function"
    },
    {
      "inputs": [
        {
          "internalType": "uint128",
          "name": "",
          "type": "uint128"
        },
        {
          "internalType": "address",
          "name": "",
          "type": "address"
        }
      ],
      "name": "sessionPlayers",
      "outputs": [
        {
          "internalType": "address",
          "name": "wallet",
          "type": "address"
        },
        {
          "internalType": "bytes32",
          "name": "moveHash",
          "type": "bytes32"
        },
        {
          "internalType": "uint32",
          "name": "joinedAt",
          "type": "uint32"
        },
        {
          "internalType": "uint32",
          "name": "moveSubmittedAt",
          "type": "uint32"
        },
        {
          "internalType": "bool",
          "name": "hasSubmittedMove",
          "type": "bool"
        },
        {
          "internalType": "bool",
          "name": "isActive",
          "type": "bool"
        }
      ],
      "stateMutability": "view",
      "type": "function"
    },
    {
      "inputs": [
        {
          "internalType": "uint128",
          "name": "",
          "type": "uint128"
        }
      ],
      "name": "sessions",
      "outputs": [
        {
          "internalType": "uint128",
          "name": "sessionId",
          "type": "uint128"
        },
        {
          "internalType": "uint32",
          "name": "playerCount",
          "type": "uint32"
        },
        {
          "internalType": "uint32",
          "name": "maxPlayers",
          "type": "uint32"
        },
        {
          "internalType": "uint32",
          "name": "moveTimeLimit",
          "type": "uint32"
        },
        {
          "internalType": "uint64",
          "name": "createdAt",
          "type": "uint64"
        },
        {
          "internalType": "uint64",
          "name": "startedAt",
          "type": "uint64"
        },
        {
          "internalType": "bool",
          "name": "isActive",
          "type": "bool"
        },
        {
          "internalType": "bool",
          "name": "isComplete",
          "type": "bool"
        },
        {
          "internalType": "uint256",
          "name": "entryFee",
          "type": "uint256"
        },
        {
          "internalType": "uint256",
          "name": "prizePool",
          "type": "uint256"
        },
        {
          "internalType": "address",
          "name": "creator",
          "type": "address"
        }
      ],
      "stateMutability": "view",
      "type": "function"
    },
    {
      "inputs": [
        {
          "internalType": "uint128",
          "name": "sessionId",
          "type": "uint128"
        }
      ],
      "name": "startSession",
      "outputs": [],
      "stateMutability": "nonpayable",
      "type": "function"
    },
    {
      "inputs": [
        {
          "internalType": "uint128",
          "name": "sessionId",
          "type": "uint128"
        },
        {
          "internalType": "bytes32",
          "name": "moveHash",
          "type": "bytes32"
        }
      ],
      "name": "submitMove",
      "outputs": [],
      "stateMutability": "nonpayable",
      "type": "function"
    },
    {
      "inputs": [
        {
          "internalType": "bytes4",
          "name": "interfaceId",
          "type": "bytes4"
        }
      ],
      "name": "supportsInterface",
      "outputs": [
        {
          "internalType": "bool",
          "name": "",
          "type": "bool"
        }
      ],
      "stateMutability": "view",
      "type": "function"
    },
    {
      "inputs": [],
      "name": "withdrawBalance",
      "outputs": [],
      "stateMutability": "nonpayable",
      "type": "function"
    }
  ],
  "bytecode": "0x60806040523461003157600160005561001733610036565b50610021336100b2565b50604051611f13908161014b8239f35b600080fd5b6001600160a01b038116600090815260008051602061207e833981519152602052604090205460ff166100ac576001600160a01b0316600081815260008051602061207e83398151915260205260408120805460ff1916600117905533919060008051602061205e8339815191528180a4600190565b50600090565b6001600160a01b038116600090815260008051602061209e833981519152602052604090205460ff166100ac576001600160a01b0316600081815260008051602061209e83398151915260205260408120805460ff191660011790553391907f6a64baf327d646d1bca72653e2a075d15fd6ac6d8cbd7f6ee03fc55875e0fa889060008051602061205e8339815191529080a460019056fe608080604052600436101561001357600080fd5b60003560e01c90816301ffc9a7146117a457508063248a9ca31461176f5780632f2ff15d1461172f57806336568abe146116e95780633a40bc1f1461168f5780635fd8c71014611576578063609a9c77146115095780636995462e146112935780636c7fa58914610df95780637375f59114610d985780637b38314c14610d5a5780637c3e0a4114610cb657806389a304f2146108cd5780638da225ff146108a657806391d1485414610859578063a217fddf1461083d578063ab40070614610802578063c220d3f0146106a4578063cfcb6302146105cd578063d547741f14610586578063f75484b3146101ae5763fa5e7f531461011157600080fd5b346101a95760203660031901126101a9576001600160801b0361013261180d565b166000526005602052604060002060405190816020825491828152019160005260206000209060005b81811061018a5761018685610172818703826118c5565b604051918291602083526020830190611851565b0390f35b82546001600160a01b031684526020909301926001928301920161015b565b600080fd5b346101a95760403660031901126101a9576101c761180d565b602435906101d3611ab3565b6001600160801b0381166000818152600360209081526040808320600483528184203385529092529091206001820154929492608081901c60ff1680610578575b1561053e578154336001600160a01b039091160361050a576002820192835460ff8160481c16156104d15760401c60ff16610493576001600160401b03918263ffffffff61026b935460c01c169160401c166118e6565b16421161045757600101829055805467ffffffff00000000191642602081901b67ffffffff000000001691909117825563ffffffff1690600160401b60ff60401b198254161790556040519182526020820152827fe40925a6925e60cd5e2a8ed9bfa7699f6238d50f059eed3fc3330326742e05ce60403393a38160005260056020526040600020916040518084602082965493848152019060005260206000209260005b818110610435575050610325925003846118c5565b60008091815b855181101561040357600082815260046020526040908190206001600160a01b03610356848a611ae2565b51169060009160018060a01b031682526020522060a060026040519261037b846118aa565b600180841b0381541684526001810154602085015201549163ffffffff8316604082015263ffffffff8360201c16606082015260ff6080820193818160401c161515855260481c16151591829101526103d8575b5060010161032b565b926103e290611ece565b92516103ef575b866103cf565b926103fb600191611ece565b9390506103e9565b5050809114908161042b575b5061041c575b6001600055005b61042590611af6565b80610415565b905015158261040f565b84546001600160a01b0316835260019485019488945060209093019201610310565b60405162461bcd60e51b8152602060048201526014602482015273135bdd9948191958591b1a5b99481c185cdcd95960621b6044820152606490fd5b60405162461bcd60e51b8152602060048201526016602482015275135bdd9948185b1c9958591e481cdd589b5a5d1d195960521b6044820152606490fd5b60405162461bcd60e51b8152602060048201526011602482015270141b185e595c88195b1a5b5a5b985d1959607a1b6044820152606490fd5b60405162461bcd60e51b815260206004820152600c60248201526b2737ba103090383630bcb2b960a11b6044820152606490fd5b60405162461bcd60e51b815260206004820152601260248201527153657373696f6e206e6f742061637469766560701b6044820152606490fd5b5060ff8160881c1615610214565b346101a95760403660031901126101a9576105cb6004356105a56117f7565b906105c66105c182600052600160205260016040600020015490565b611961565b611a2d565b005b346101a95760203660031901126101a9576001600160801b036105ee61180d565b1660005260036020526101606040600020805490600181015490600281015460ff600383015492600460018060a01b03910154169363ffffffff604051966001600160801b0381168852818160801c166020890152818160a01c16604089015260c01c1660608701526001600160401b03811660808701526001600160401b038160401c1660a0870152818160801c16151560c087015260881c16151560e0850152610100840152610120830152610140820152f35b346101a95760203660031901126101a9576106bd61180d565b6001600160801b0381166000526003602052604060002060018060a01b03600482015416331480156107ca575b1561079457600263ffffffff825460801c161061074f576001015460801c60ff16610718576105cb90611e4b565b60405162461bcd60e51b815260206004820152600f60248201526e105b1c9958591e481cdd185c9d1959608a1b6044820152606490fd5b60405162461bcd60e51b815260206004820152601760248201527f4e656564206174206c65617374203220706c61796572730000000000000000006044820152606490fd5b60405162461bcd60e51b815260206004820152600e60248201526d139bdd08185d5d1a1bdc9a5e995960921b6044820152606490fd5b503360009081527ff98484320d68abb0c5a8823fabc8fb560921322d0dc4561b92a1409ddccbd8b9602052604090205460ff166106ea565b346101a95760003660031901126101a95760206040517f6a64baf327d646d1bca72653e2a075d15fd6ac6d8cbd7f6ee03fc55875e0fa888152f35b346101a95760003660031901126101a957602060405160008152f35b346101a95760403660031901126101a9576108726117f7565b600435600052600160205260406000209060018060a01b0316600052602052602060ff604060002054166040519015158152f35b346101a95760003660031901126101a95760206001600160801b0360025416604051908152f35b60203660031901126101a9576108e161180d565b6108e9611ab3565b6001600160801b03811680600052600360205260406000208054906001600160801b03821615610c7d57600181015460ff8160801c16610c385760881c60ff16610bff5763ffffffff808360801c169260a01c16821015610bcb5760008381526004602090815260408083203384529091529020546001600160a01b0316610b95576002810180543410610b575763ffffffff8314610b4157815463ffffffff60801b191660019390930160801b63ffffffff60801b1692909217815563ffffffff9180546109bd60038401918254611954565b9055610aa76040516109ce816118aa565b338082526000602080840182815242891660408087019182526060870185815260808801868152600160a08a018181528f89526004885284892099895298875292909620975188546001600160a01b039091166001600160a01b03199091161788559251908701555160029095018054915167ffffffff00000000908b1690931b9290921694891689199091161767ffffffff000000001916939093178355610a8c9051835460ff60401b191690151560401b60ff60401b16178355565b51815460ff60481b191690151560481b60ff60481b16179055565b836000526005602052610abe336040600020611906565b54803411610b16575b5054818160801c1692604051908482527f13881aecb3b230a95624563021577904d5705b4600d84d955d451c138a66616860203393a360a01c1614610b0d576001600055005b61042590611e4b565b610b209034611947565b336000526006602052610b396040600020918254611954565b905584610ac7565b634e487b7160e01b600052601160045260246000fd5b60405162461bcd60e51b8152602060048201526016602482015275496e73756666696369656e7420656e7472792066656560501b6044820152606490fd5b60405162461bcd60e51b815260206004820152600e60248201526d105b1c9958591e481a9bda5b995960921b6044820152606490fd5b60405162461bcd60e51b815260206004820152600c60248201526b14d95cdcda5bdb88199d5b1b60a21b6044820152606490fd5b60405162461bcd60e51b815260206004820152601160248201527014d95cdcda5bdb8818dbdb5c1b195d1959607a1b6044820152606490fd5b60405162461bcd60e51b815260206004820152601760248201527f53657373696f6e20616c726561647920737461727465640000000000000000006044820152606490fd5b60405162461bcd60e51b815260206004820152601160248201527014d95cdcda5bdb881b9bdd08199bdd5b99607a1b6044820152606490fd5b346101a95760403660031901126101a95760c06040610cd361180d565b6001600160801b03610ce36117f7565b911660005260046020528160002060009160018060a01b031682526020522060ff60018060a01b03825416916002600182015491015490604051938452602084015263ffffffff8116604084015263ffffffff8160201c166060840152818160401c161515608084015260481c16151560a0820152f35b346101a95760203660031901126101a9576004356001600160a01b038116908190036101a95760005260066020526020604060002054604051908152f35b346101a95760403660031901126101a957610db161180d565b6001600160801b0360243591166000526005602052604060002080548210156101a957602091610de091611823565b905460405160039290921b1c6001600160a01b03168152f35b60603660031901126101a95760043563ffffffff81168091036101a957602435906044359063ffffffff82168092036101a957610e34611ab3565b600281101580611288575b1561124c57600a82101580611240575b15611206578234106111c157600254916001600160801b0383166001600160801b038114610b41576001016001600160801b031680936001600160801b03191617600255604051610e9f8161188e565b8381526020810160018152604082018481526060830184815260808401426001600160401b0316815260a085016000815260c086016000815260e0870191600083526101008801948c86526101208901968d88526101408a0198338a528d600052600360205260406000209a516001600160801b03166001600160801b03198c5416178b555163ffffffff16610f51908b9081549063ffffffff60801b9060801b169063ffffffff60801b1916179055565b518954915167ffffffffffffffff60a01b1990921660a09190911b63ffffffff60a01b161760c09190911b63ffffffff60c01b16178855925160018801805494516fffffffffffffffffffffffffffffffff199095166001600160401b03929092169190911760409490941b67ffffffffffffffff60401b16939093178355518254915161ffff60801b1990921690151560801b60ff60801b161790151560881b60ff60881b1617905551600284015551600383015551600490910180546001600160a01b0319166001600160a01b0392909216919091179055604051611037816118aa565b338082526000602080840182815263ffffffff42811660408088019182526060880186815260808901878152600160a08b018181528e8a5260048952848a209a8a5299885292909720985189546001600160a01b0319166001600160a01b03919091161789559351908801555160029096018054925167ffffffffffffffff199093169690911695909517911b67ffffffff000000001617835551825460ff60401b191690151560401b60ff60401b1617825551815460ff60481b191690151560481b60ff60481b161790558260005260056020523360406000209061111c91611906565b83341193602094611198575b604051928352848301526040820152817fd62b80974f5acf420bb8cdbeae95569355fc9c5bc5dba849b270092888a4d14060603393a360405160018152817f13881aecb3b230a95624563021577904d5705b4600d84d955d451c138a666168843393a36001600055604051908152f35b6111a28134611947565b33600052600686526111ba6040600020918254611954565b9055611128565b60405162461bcd60e51b815260206004820152601b60248201527f496e73756666696369656e7420656e747279206665652073656e7400000000006044820152606490fd5b60405162461bcd60e51b8152602060048201526012602482015271125b9d985b1a59081d1a5b59481b1a5b5a5d60721b6044820152606490fd5b50610e10821115610e4f565b60405162461bcd60e51b8152602060048201526014602482015273125b9d985b1a59081c1b185e595c8818dbdd5b9d60621b6044820152606490fd5b506064811115610e3f565b346101a95760203660031901126101a9576112ac61180d565b3360009081527ff98484320d68abb0c5a8823fabc8fb560921322d0dc4561b92a1409ddccbd8b9602052604090205460ff16156114d0576001600160801b038116908160005260036020526040600020600181015460ff8160801c16806114c2575b15611485576113376001600160401b03918263ffffffff603c955460c01c169160401c166118e6565b16016001600160401b038111610b41576001600160401b0316421115611440578160005260056020526040600020916040518084602082965493848152019060005260206000209260005b81811061141e575050611397925003846118c5565b60005b8351811015611415576001908260005260046020526002604080600020848060a01b036113c7858a611ae2565b511690600091868060a01b031682526020522001805460ff8160481c1680611407575b6113f7575b50500161139a565b60ff60481b1916905585806113ef565b5060ff8160401c16156113ea565b6105cb83611af6565b84546001600160a01b0316835260019485019488945060209093019201611382565b60405162461bcd60e51b815260206004820152601760248201527f5761697420706572696f64206e6f7420656c61707365640000000000000000006044820152606490fd5b60405162461bcd60e51b8152602060048201526015602482015274496e76616c69642073657373696f6e20737461746560581b6044820152606490fd5b5060ff8160881c161561130e565b63e2517d3f60e01b600052336004527f6a64baf327d646d1bca72653e2a075d15fd6ac6d8cbd7f6ee03fc55875e0fa8860245260446000fd5b346101a95760203660031901126101a9576001600160801b0361152a61180d565b1680600052600360205260ff60016040600020015460801c1680611556575b6020906040519015158152f35b506000526003602052602060ff60016040600020015460881c1615611549565b346101a95760003660031901126101a95761158f611ab3565b3360005260066020526040600020548015611651576000808080933382526006602052816040812055335af13d1561164c573d6001600160401b03811161163657604051906115e8601f8201601f1916602001836118c5565b8152600060203d92013e5b156115ff576001600055005b60405162461bcd60e51b815260206004820152600f60248201526e151c985b9cd9995c8819985a5b1959608a1b6044820152606490fd5b634e487b7160e01b600052604160045260246000fd5b6115f3565b60405162461bcd60e51b81526020600482015260166024820152754e6f2062616c616e636520746f20776974686472617760501b6044820152606490fd5b346101a95760403660031901126101a9576116a861180d565b6001600160801b036116b86117f7565b9116600052600460205260406000209060018060a01b03166000526020526020600160406000200154604051908152f35b346101a95760403660031901126101a9576117026117f7565b336001600160a01b0382160361171e576105cb90600435611a2d565b63334bd91960e11b60005260046000fd5b346101a95760403660031901126101a9576105cb60043561174e6117f7565b9061176a6105c182600052600160205260016040600020015490565b61199e565b346101a95760203660031901126101a957602061179c600435600052600160205260016040600020015490565b604051908152f35b346101a95760203660031901126101a9576004359063ffffffff60e01b82168092036101a957602091637965db0b60e01b81149081156117e6575b5015158152f35b6301ffc9a760e01b149050836117df565b602435906001600160a01b03821682036101a957565b600435906001600160801b03821682036101a957565b805482101561183b5760005260206000200190600090565b634e487b7160e01b600052603260045260246000fd5b906020808351928381520192019060005b81811061186f5750505090565b82516001600160a01b0316845260209384019390920191600101611862565b61016081019081106001600160401b0382111761163657604052565b60c081019081106001600160401b0382111761163657604052565b90601f801991011681019081106001600160401b0382111761163657604052565b906001600160401b03809116911601906001600160401b038211610b4157565b8054600160401b8110156116365761192391600182018155611823565b81546001600160a01b0393841660039290921b91821b9390911b1916919091179055565b91908203918211610b4157565b91908201809211610b4157565b600081815260016020908152604080832033845290915290205460ff16156119865750565b63e2517d3f60e01b6000523360045260245260446000fd5b60008181526001602090815260408083206001600160a01b038616845290915290205460ff16611a265760008181526001602081815260408084206001600160a01b0396909616808552959091528220805460ff19169091179055339291907f2f8788117e7eff1d82e926ec794901d17c78024a50270940304540a733656f0d9080a4600190565b5050600090565b60008181526001602090815260408083206001600160a01b038616845290915290205460ff1615611a265760008181526001602090815260408083206001600160a01b0395909516808452949091528120805460ff19169055339291907ff6391f5c32d9c69d2a47ea670b442974b53935d1edc7fd64eb21e047a839171b9080a4600190565b600260005414611ac4576002600055565b633ee5aeb560e01b60005260046000fd5b80511561183b5760200190565b805182101561183b5760209160051b010190565b6001600160801b03166000818152600360205260409081902060018101805460ff60881b1916600160881b1790559051909290611b328161188e565b63ffffffff84546001600160801b0381168352818160801c166020840152818160a01c16604084015260c01c16606082015260ff60018501546001600160401b03811660808401526001600160401b038160401c1660a0840152818160801c16151560c084015260881c16151560e082015260028401546101008201526101406003850154946101208301958652600460018060a01b03910154169101528160005260056020526040600020916040518084602082965493848152019060005260206000209260005b818110611e29575050611c10925003846118c5565b6040805190611c1f81836118c5565b60018252601f19810180366020850137815196611c3c83896118c5565b6001885260208801913683376001600160a01b03611c5988611ad5565b51169660015b8151811015611e1c5786600052600460205260ff6002868060002060018060a01b03611c8b8688611ae2565b51166001600160a01b0316600090815260209190915220015460481c16611cb457600101611c5f565b611ccd91929394959697985060018060a01b0392611ae2565b51165b611cd985611ad5565b6001600160a01b03909116905251611cf087611ad5565b5260005b8351811015611d985780611d0a60019289611ae2565b51611d16575b01611cf4565b611d208189611ae2565b51828060a01b03611d318388611ae2565b51166000526006602052611d4a85600020918254611954565b9055818060a01b03611d5c8287611ae2565b5116867f097df41af348e71af29803374e72877a0af91f7e36b2cd93f1f7ab1ec41868856020611d8c858d611ae2565b518851908152a3611d10565b50946020611db0835194606086526060860190611851565b9184830382860152519182815201959060005b818110611e06575050507f84d73f4fa61e2393a0d913726d15dfbe266e955a5d5d949583c1e023f6b83c3e92939482916001600160401b034216908301520390a2565b8251885260209788019790920191600101611dc3565b5050909192939495611cd0565b84546001600160a01b0316835260019485019488945060209093019201611bfb565b6001600160801b0316600081815260036020908152604091829020600101805470ffffffffffffffffff00000000000000001916429384901b67ffffffffffffffff60401b1617600160801b1790557f51c5948bd3ade549f930bff0f4779449a5ef6844a55bc1ef86c166e449d4d13b916001600160401b0316604051908152a2565b6000198114610b41576001019056fea2646970667358221220fb9884a2c5aacfe55cb9cdd8345311b6b3ce2200ad76297c757638e4bf40ecd964736f6c634300081c00332f8788117e7eff1d82e926ec794901d17c78024a50270940304540a733656f0da6eef7e35abe7026729641147f7915573c7e97b47efa546f5f6e3230263bcb49f98484320d68abb0c5a8823fabc8fb560921322d0dc4561b92a1409ddccbd8b9",
  "linkReferences": {},
  "deployedLinkReferences": {}
}